:020000040800F2
:1000000000000320E102000831030008310300086A
:10001000310300083103000831030008000000002C
:100020000000000000000000000000003103000894
:10003000310300080000000031030008310300080C
:1000400031030008310300083103000831030008C0
:1000500031030008310300083103000831030008B0
:1000600031030008310300083103000831030008A0
:100070003103000831030008310300083103000890
:100080003103000831030008310300083103000880
:100090003103000831030008310300083103000870
:1000A0003103000831030008310300083103000860
:1000B0003103000831030008310300083103000850
:1000C0003103000831030008310300083103000840
:1000D0003103000831030008310300083103000830
:1000E0003103000831030008310300083103000820
:1000F0003103000831030008310300083103000810
:1001000031030008310300083103000831030008FF
:1001100031030008310300083103000831030008EF
:1001200031030008310300083103000831030008DF
:1001300031030008310300083103000831030008CF
:1001400031030008310300083103000831030008BF
:1001500031030008310300083103000831030008AF
:10016000310300083103000831030008310300089F
:1001700031030008310300083103000800000000CB
:10018000310300083103000831030008310300087F
:10019000310300083103000831030008310300086F
:0C01A0003103000831030008310300089F
:1001AC0010B5054C237833B9044B13B10448AFF3A5
:1001BC0000800123237010BD00000020000000000F
:1001CC007C03000808B5034B1BB103490348AFF38C
:1001DC00008008BD00000000040000207C03000823
:1001EC0080B400AF064BD3F88830054A43F4700353
:1001FC00C2F8883000BFBD465DF8047B704700BF75
:10020C0000ED00E080B500AF00F020F80C4B1B694E
:10021C0003F40053002B09D00A4B01221A700A4B2D
:10022C009B69094A43F080039361EFE7054B002279
:10023C001A70054B9B69044A43F400039361E5E78C
:10024C00000802401C0000200004024080B400AFF3
:10025C001D4B1B6B1C4A43F0060313631B4B1B68A3
:10026C001A4A43F480431360184B5B68174A23F017
:10027C0080035360154B9B68144A43F4804393608E
:10028C00124BDB68114A23F48043D360104B1B687C
:10029C000F4A23F0406313600D4B5B680C4A23F448
:1002AC00005353600A4B9B68094A43F08063936088
:1002BC00074BDB68064A23F08063D36000BFBD4662
:1002CC005DF8047B704700BF003802400004024018
:1002DC0000080240DFF834D00D480E490E4A0023C6
:1002EC0002E0D458C4500433C4188C42F9D30B4ADE
:1002FC000B4C002301E013600432A242FBD3FFF746
:10030C006FFF00F011F8FFF77DFF7047000003202E
:10031C0000000020000000209C03000800000020CA
:10032C0020000020FEE7000070B50D4D0D4C641B45
:10033C00A4100026A64209D10B4D0C4C00F018F865
:10034C00641BA4100026A64205D170BD55F8043BD1
:10035C0098470136EEE755F8043B98470136F2E72B
:10036C009403000894030008940300089803000801
:10037C00F8B500BFF8BC08BC9E467047F8B500BF86
:08038C00F8BC08BC9E46704756
:04039400D10100088B
:04039800AD010008AB
:04000005080002E10C
:00000001FF
