:020000040800F2
:1000000000000320B90200080903000809030008E2
:1000100009030008090300080903000800000000A4
:1000200000000000000000000000000009030008BC
:100030000903000800000000090300080903000884
:100040000903000809030008090300080903000860
:100050000903000809030008090300080903000850
:100060000903000809030008090300080903000840
:100070000903000809030008090300080903000830
:100080000903000809030008090300080903000820
:100090000903000809030008090300080903000810
:1000A0000903000809030008090300080903000800
:1000B00009030008090300080903000809030008F0
:1000C00009030008090300080903000809030008E0
:1000D00009030008090300080903000809030008D0
:1000E00009030008090300080903000809030008C0
:1000F00009030008090300080903000809030008B0
:10010000090300080903000809030008090300089F
:10011000090300080903000809030008090300088F
:10012000090300080903000809030008090300087F
:10013000090300080903000809030008090300086F
:10014000090300080903000809030008090300085F
:10015000090300080903000809030008090300084F
:10016000090300080903000809030008090300083F
:100170000903000809030008090300080000000043
:10018000090300080903000809030008090300081F
:10019000090300080903000809030008090300080F
:0C01A00009030008090300080903000817
:1001AC0010B5054C237833B9044B13B10448AFF3A5
:1001BC0000800123237010BD00000020000000000F
:1001CC005403000808B5034B1BB103490348AFF3B4
:1001DC00008008BD0000000004000020540300084B
:1001EC0080B400AF064BD3F88830054A43F4700353
:1001FC00C2F8883000BFBD465DF8047B704700BF75
:10020C0000ED00E080B400AF1D4B1B681C4A43F0AE
:10021C00060313601B4B1B681A4A43F4804313609C
:10022C00194B194A1B681360184B1B68174A43F487
:10023C0080431360164B164A1B681360154B154A06
:10024C001B681360144B144A1B681360134B1B6818
:10025C00124A43F000631360114B114A1B68136080
:10026C00104B1B6803F40053002B03D00E4B802261
:10027C001A60F5E70C4B4FF400021A60F0E700BF70
:10028C0030380240000402400404024008040240DA
:10029C000C04024000080240040802400808024016
:1002AC000C0802401008024018040240DFF834D059
:1002BC000D480E490E4A002302E0D458C4500433B2
:1002CC00C4188C42F9D30B4A0B4C002301E0136089
:1002DC000432A242FBD3FFF783FF00F011F8FFF7C3
:1002EC0091FF704700000320000000200000002058
:1002FC0074030008000000201C000020FEE7000032
:10030C0070B50D4D0D4C641BA4100026A64209D1EE
:10031C000B4D0C4C00F018F8641BA4100026A642E0
:10032C0005D170BD55F8043B98470136EEE755F8FA
:10033C00043B98470136F2E76C0300086C03000895
:10034C006C03000870030008F8B500BFF8BC08BCCB
:10035C009E467047F8B500BFF8BC08BC9E46704777
:04036C00D1010008B3
:04037000AD010008D3
:04000005080002B934
:00000001FF
