:020000040800F2
:1000000000000320D502000825030008250300088E
:100010002503000825030008250300080000000050
:1000200000000000000000000000000025030008A0
:100030002503000800000000250300082503000830
:1000400025030008250300082503000825030008F0
:1000500025030008250300082503000825030008E0
:1000600025030008250300082503000825030008D0
:1000700025030008250300082503000825030008C0
:1000800025030008250300082503000825030008B0
:1000900025030008250300082503000825030008A0
:1000A0002503000825030008250300082503000890
:1000B0002503000825030008250300082503000880
:1000C0002503000825030008250300082503000870
:1000D0002503000825030008250300082503000860
:1000E0002503000825030008250300082503000850
:1000F0002503000825030008250300082503000840
:10010000250300082503000825030008250300082F
:10011000250300082503000825030008250300081F
:10012000250300082503000825030008250300080F
:1001300025030008250300082503000825030008FF
:1001400025030008250300082503000825030008EF
:1001500025030008250300082503000825030008DF
:1001600025030008250300082503000825030008CF
:1001700025030008250300082503000800000000EF
:1001800025030008250300082503000825030008AF
:10019000250300082503000825030008250300089F
:0C01A000250300082503000825030008C3
:1001AC0010B5054C237833B9044B13B10448AFF3A5
:1001BC0000800123237010BD00000020000000000F
:1001CC007003000808B5034B1BB103490348AFF398
:1001DC00008008BD0000000004000020700300082F
:1001EC0080B400AF064BD3F88830054A43F4700353
:1001FC00C2F8883000BFBD465DF8047B704700BF75
:10020C0000ED00E080B500AF00F018F8094B1B685A
:10021C0003F40053002B06D0074B1B68064A43F02F
:10022C0080031360F2E7044B1B68034A43F400039A
:10023C001360EBE7100802401804024080B400AFD2
:10024C00184B1B68174A43F006031360164B1B68C8
:10025C00154A43F480431360144B144A1B68136013
:10026C00134B1B68124A43F480431360114B114A21
:10027C001B681360104B104A1B6813600F4B0F4A1E
:10028C001B6813600E4B1B680D4A43F00063136030
:10029C000C4B0C4A1B68136000BFBD465DF8047B19
:1002AC00704700BF30380240000402400404024092
:1002BC00080402400C0402400008024004080240FA
:1002CC00080802400C080240DFF834D00D480E49F3
:1002DC000E4A002302E0D458C4500433C4188C4294
:1002EC00F9D30B4A0B4C002301E013600432A242F9
:1002FC00FBD3FFF775FF00F011F8FFF783FF704792
:10030C0000000320000000200000002090030008E3
:10031C00000000201C000020FEE7000070B50D4D11
:10032C000D4C641BA4100026A64209D10B4D0C4C9D
:10033C0000F018F8641BA4100026A64205D170BD6D
:10034C0055F8043B98470136EEE755F8043B9847BF
:10035C000136F2E7880300088803000888030008C8
:10036C008C030008F8B500BFF8BC08BC9E4670476B
:0C037C00F8B500BFF8BC08BC9E467047F6
:04038800D101000897
:04038C00AD010008B7
:04000005080002D518
:00000001FF
